:020000040800F2
:1000000000410020CD02000861340008C92A000820
:1000100019340008A5200008D33F000800000000A4
:100020000000000000000000000000003502000891
:10003000312800080000000079020008D7380008C5
:10004000E7020008E7020008E7020008E7020008EC
:10005000E7020008E7020008E7020008E7020008DC
:10006000E7020008E7020008E7020008E7020008CC
:10007000E7020008E7020008E7020008E7020008BC
:10008000E7020008E7020008E7020008E7020008AC
:10009000E7020008E7020008E7020008E70200089C
:1000A000E7020008E7020008E7020008E70200088C
:1000B000E70200084939000875390008E70200081E
:1000C000E7020008E7020008E7020008E70200086C
:1000D000E70200085D3C0008E53C00080D3D000813
:1000E000E7020008E7020008E702000800F002F853
:1000F00000F090F80AA090E8000C82448344AAF132
:100100000107DA4501D100F085F8AFF2090EBAE82F
:100110000F0013F0010F18BFFB1A43F0010318473B
:100120009C790000BC790000103A24BF78C878C1DF
:10013000FAD8520724BF30C830C144BF04680C60ED
:10014000704700000023002400250026103A28BF35
:1001500078C1FBD8520728BF30C148BF0B60704739
:100160006E2900F07A83702900F0E584662907F093
:10017000FB83652907F0F883672907F0F583612978
:1001800007F0F48303681B0A28BF41F08001692946
:1001900000F00681642900F00381752900F00081D8
:1001A0006F2900F07284782900F0B184E92900F009
:1001B0000D84E42900F00A84F52900F00784EF2972
:1001C00000F06F84F82900F0B0840368DB0928BFD1
:1001D00041F08001632900F07C83732900F0818362
:1001E000E32901F0C180F32901F0C68000207047A7
:1001F0001FB501F017F904000020002107F01AF9DB
:10020000401C60600020002107F0FEF8E0601FBD88
:1002100010B510BD01F0D8F81146FFF7E9FF04F062
:10022000D3F801F0B5F903B4FFF7F2FF03BC03F014
:10023000EDFE0000224B19680868B0E8F00F80F36B
:100240000988BFF36F8F4FF0000080F311884EF0E4
:100250000D0E70470000000006480068006880F33B
:10026000088862B661B6BFF34F8FBFF36F8F00DFB0
:1002700000BF00BF08ED00E0EFF30980BFF36F8F10
:100280000F4B1A6820E9F00F106008B54FF05000CE
:1002900080F31188BFF34F8FBFF36F8F05F000FE1F
:1002A0004FF0000080F31188BDE808401968086825
:1002B000B0E8F00F80F30988BFF36F8F704700BF7D
:1002C00080000020EFF30580704700000948804758
:1002D00009480047FEE7FEE7FEE7FEE7FEE7FEE728
:1002E000FEE7FEE7FEE7FEE704480549054A064B40
:1002F00070470000E9380008ED000008003B0020CE
:1003000000410020003D0020003D0020704700001B
:100310001CB50C46064B7B4469460090204600F015
:10032000B6FA04460020694600F0C4FA20461CBD17
:100330009B0500000FB4044910B503AA029800F011
:10034000D5FA10BC5DF814FB5000002070B50C46C7
:100350000546012A05D02878800600D5EA690023E1
:1003600002E0012305E05B1C934202D2E05C00281E
:10037000F9D1A869E618C01AA861286A1844286249
:10038000284600F0D8F904E0D5E9012114F8010B62
:100390009047B442F8D3284600F0E3F970BD00005E
:1003A0002DE9F0410646002410687529314616A54E
:1003B00010D000F0E7F9002802DA404213A507E068
:1003C00031688A0701D512A502E0490704D511A5B5
:1003D000012401E000F0DFF900210A2206F12407E0
:1003E00009E0B0FBF2FCB0FBF2F302FB1C00303082
:1003F00078541846491C0028F3D123462A46304633
:10040000BDE8F04100F0D0B9000000002D00000070
:100410002B000000200000002DE9F05F8946044613
:100420004FF0000ADFF874B1FB44C0F820A020466A
:10043000E1688847002874D0252806D0D4E9012136
:100440009047206A401C2062F1E700265F46204664
:10045000E16888472028054607DB312D05D2781949
:1004600010F8200C08B10643F1E7B00701D526F0DB
:100470000406C4F81CA00027C4F818A02A2D09D02F
:10048000284603F0BCFD38B304EB8708303DC8F8BC
:10049000185019E059F8041B204604EB87029161BB
:1004A000E1688847012F054618D1E069002820DA65
:1004B00026F020061DE0D8F8180000EB800005EBC0
:1004C00040003038C8F818002046E16888470546E3
:1004D00003F095FD0028EED1012F0AD02E2D08D172
:1004E0002046E16888477F1C0546022F46F020061B
:1004F000C4DBA069002803DA404246F00106A0618F
:10050000F00701D026F010066C2D0BD0682D09D015
:100510004C2D39D06A2D35D0742D35D07A2D33D06D
:1005200016E038E0E1682F4620468847B842054685
:1005300009D16C2F26D04FF48060E1680643204635
:100540008847054604E06C2F1AD04FF480700643AC
:100550000DB3A5F14100192802D8203546F40066F4
:100560004A462946204626604E46FFF7F9FD80B1EF
:1005700001280BD0F61D26F0070000F1080956E708
:100580004020E4E78020D8E70020D6E706F1040900
:100590004DE7284652E7206ABDE8F09F4475000009
:1005A00030B505460B462A4613F8014B12F8010BED
:1005B00008B1A042F8D01CB1002802D06D1CF1E7B0
:1005C000284630BD10B5431C02E010F8011B71B184
:1005D0008107FAD14FF0013202C88C1A8C4314EA19
:1005E000C211F9D0C01A0A0603D0C01E10BDC01A2D
:1005F00010BD0A0401D0801E10BD0902FCD0401EAF
:1006000010BD032A40F2308010F0030C00F015807A
:1006100011F8013BBCF1020F624498BF11F801CB05
:1006200000F8013B38BF11F8013BA2F1040298BF6A
:1006300000F801CB38BF00F8013B11F0030300F0D4
:100640008582083AC0F0088051F8043B083A51F816
:1006500004CBA0E80810F5E7121D5CBF51F8043B7D
:1006600040F8043BAFF30080D20724BF11F8013BF0
:1006700011F801CB48BF11F8012B24BF00F8013B52
:1006800000F801CB48BF00F8012B704702F0FF03D0
:1006900043EA032242EA024200F002B84FF00002AD
:1006A0000429C0F0128010F0030C00F01B80CCF184
:1006B000040CBCF1020F18BF00F8012BA8BF20F8F2
:1006C000022BA1EB0C0100F00DB85FEAC17C24BF46
:1006D00000F8012B00F8012B48BF00F8012B7047F0
:1006E0004FF0000200B5134694469646203922BFCB
:1006F000A0E80C50A0E80C50B1F12001BFF4F7AF16
:10070000090728BFA0E80C5048BF0CC05DF804EBF7
:10071000890028BF40F8042B08BF704748BF20F865
:10072000022B11F0804F18BF00F8012B7047704763
:1007300070477047704770B5044685690068C10608
:1007400001D5302600E02026C00707D070BDD4E9CF
:10075000012130469047206A401C20626D1EF6D56C
:1007600070BD70B5044685690078C00707D170BDBB
:10077000D4E9012120209047206A401C20626D1E90
:10078000F6D570BD09684A0501D540B27047C90564
:10079000FCD500B2704709684A0501D5C0B2704760
:1007A000C905FCD580B270472DE9F0470D46994642
:1007B0009246044600F124080168880604D5E069E1
:1007C00021F01001216000E00120A84201DD471B5B
:1007D00000E00027A1697A1902EB0900081AA0615C
:1007E0002078C00602D42046FFF7A5FF002608E0C7
:1007F000D4E901211AF806009047206A401C761CB3
:1008000020624E45F4DB2078C0060AD52046FFF76B
:1008100092FF06E0D4E9012130209047206A401C75
:100820002062381EA7F10107F4DC07E0D4E90121BA
:1008300018F805009047206A401C2062281EA5F188
:100840000105F3DC2046FFF78CFF2078000602D577
:100850000220BDE8F0870120FBE711680268006A0A
:10086000530501D508700AE0D30501D5088006E0DC
:10087000130603D5C217C1E9000200E00860012099
:100880007047000001694A1C02610878704700B592
:100890008FB0CDE901310021059105497944CDE9B9
:1008A000031011466846FFF7B7FD0FB000BD00000A
:1008B000E5FFFFFF0A6802F8010B0A60704710B5F8
:1008C000436913B1AFF3008001E0FFF73FFD012062
:1008D00010BD127800F124010A7000224A70012232
:1008E000EDE711684FF0FF32E9E70000074B70B504
:1008F0000D467B44FFF7CBFF0446284600F040FD41
:1009000010B14FF0FF3070BD204670BD2F38000091
:100910002DE9FF5F15468A460446DFF8AC80F844AF
:100920000027D8E900103E46CDE9001010E03AF863
:1009300016106A4602A800F027FD411C07D0217856
:10094000890603D5E269391891420DD80744761C0F
:100950002078800602D5E069B84205DDAE42E6DBCC
:100960003AF816000028E2D1A069C01BA061204619
:10097000FFF7E1FED8E90010CDE90010002017E0F4
:100980003AF818106A4602A800F0FEFCB0F1FF3FEA
:1009900081460BD000250DF1080B05E0D4E90121BB
:1009A0001BF8050090476D1C4D45F7D308F1010079
:1009B000B0428046E4DB206A384420622046FFF7DC
:1009C000D0FEBDE8FF9F0000627000002DE9F041FD
:1009D0008046D21D22F007020025D2E90002F52947
:1009E00015A614D0011E72F1000106DA0023D0EB27
:1009F000030063EB020211A608E0D8F800108B0791
:100A000001D50FA602E0490701D50EA60125114622
:100A1000002408F1240704E000F0CAF830323A5507
:100A2000641C50EA0102F7D12B463246214640466B
:100A3000BDE8F041FFF7B8BE000000002D00000047
:100A40002B0000002000000030B4002100F124043D
:100A500008E002F00705D208303542EA4372DB08AD
:100A60006554491C52EA0305F3D10468002310A21F
:100A7000250707D5A40600D421B1C46901230DA21E
:100A8000641EC46130BCFFF78FBE10B5044621461A
:100A90001068FFF780FE02462046BDE810400023A4
:100AA000D2E7D21D22F00701D1E90023CCE70000F4
:100AB0000000000030000000F0B40D460188090578
:100AC00002D5214C7C4402E01F4C7C440E340021B2
:100AD00000F1240608E002F00F071209E75D42EA80
:100AE00003721B097754491C52EA0307F3D10278B9
:100AF0000023120704D5702D06D009B1022311344A
:100B00002246F0BCFFF750BE01231034F8E770B561
:100B100004460D4621461068FFF73DFE0246294671
:100B20002046BDE870400023C6E7D21D22F007032F
:100B3000D3E90023C0E70368126843F02003036091
:100B40000823C3610023B7E7C46E000010B5203A44
:100B5000C0F00B80B1E81850203AA0E81850B1E876
:100B60001850A0E81850BFF4F5AF5FEA027C24BF2C
:100B7000B1E81850A0E8185044BF18C918C0BDE823
:100B800010405FEA827C24BF51F8043B40F8043BEC
:100B900008BF7047D20728BF31F8023B48BF11F8A1
:100BA000012B28BF20F8023B48BF00F8012B7047FB
:100BB00030B5B0F10A024FEA900E71F100034EEA2F
:100BC000817EB0EB0E0061EB91014FEA101E4EEA00
:100BD000017E10EB0E0041EB11114FEA102E4EEA90
:100BE000016E10EB0E0041EB11214FEA104E4EEA60
:100BF000014E10EB0E0041EB1141401841F1000194
:100C00004FEAD00040EA41704FEAD10110EB800575
:100C10004FEA810444EA907444EB01046D1944EBFB
:100C20000404521BA3414FF0000348BF0A3200D511
:100C300030BD401C41F1000130BD70472DE9FF4F30
:100C40000C461E464FF0FF378BB0D2E90001DDF8AD
:100C500060800A908A46C1F30A5505B93D460021D5
:100C600008464FF00000BAF1000F00F4400005DA2A
:100C700000EB80004FF4400101EA50004FEA905928
:100C8000B9F1010F00DDB9460A9850EA4A000ED0CA
:100C900044F61050A5F2FF3545432F14B8F1000F6C
:100CA0001ED07542291E1EDDC9F100021CE0B8F1FC
:100CB000010F4FF0000001D0302103E0F24305E0C6
:100CC0002154401CB042FBDB30460022002121545D
:100CD0000B99C1F80880C1E900200FB0BDE8F08F82
:100CE000BD1B6D1CDEE74A4600DA694206A800F02B
:100CF000DDFB06AB93E8070003AB83E80700504633
:100D00000A9900F093FC8DE80700A0F500501F3809
:100D100000900398002D0ADD42F21F014A46084464
:100D2000002303A90390684600F0FCFE09E0A0F54B
:100D300000504A461F38002303A90390684600F07C
:100D400006FF8DE807000004000C03D04FF0FF30D1
:100D5000410800E01046B8F1000F03D000220092D5
:100D600015461EE0751E05D4FFF722FF303262558E
:100D70006D1EF9D5B3460122084302D000227F1C24
:100D800004E02078302801D100227F1E002A099734
:100D900084D01DE0112D07DAFFF70AFF30326255CB
:100DA0006D1C50EA0102F5D1084302D00098C8B189
:100DB0000EE00021681E05E0235C625C635422544F
:100DC000401E491C8142F7DBAB46A81B401E099020
:100DD000002004F80B000B98099AC0F80880C0E9BD
:100DE000002B7AE711264FF0000857E72DE9F04F66
:100DF00088460446D21D22F0070191B0D1E90001D6
:100E0000CDE90A0103F0E7F802460B98C00F01D0C4
:100E10002D2007E02068810701D52B2002E020214A
:100E200001EAC000032A099001D0072A05DB034626
:100E30004146204600F0FAFA0BE12078800601D501
:100E4000E06900E00620B8F1650F814606D0B8F1F0
:100E5000660F18D0B8F1670F70D131E00020B9F1FA
:100E6000110F009001DB112301E009F101030AAA2F
:100E700001A90CA8FFF7E2FEDDE90C70002609F1DC
:100E80000105834647E001204B4600904FF00047A4
:100E90000AAA01A90CA8FFF7D1FEDDE90DB00C9953
:100EA0005D46002610B909F101000D18B9EB0500E7
:100EB00003D4C0F1FF3609F10105A5EB09002BE0D1
:100EC000B9F1010F01DA4FF001090020B9F1110F5A
:100ED0000090484601DD112300E003460AAA01A95B
:100EE0000CA8FFF7ABFEDDE90C704D4600268346EB
:100EF000207800070AD4AB4500DA5D4601A8012D31
:100F000004DD411911F8011C302907D04F4502DAE0
:100F100017F1040F04DA012082460FE06D1EEEE7A0
:100F2000002F02DCED1B3E4403E0781CA84200DDEC
:100F30007D1CB81B00F1010A4FF000472078000724
:100F400003D4AA4501DB4FF0FF3A0021B7F1004F6F
:100F50000DF143088DF8431024D002202B23002FDD
:100F600001DA7F422D230A21021EA0F1010000DCDC
:100F70005FB197FBF1FC97FBF1F201FB1C7C17467C
:100F80000CF1300C08F801CDEEE7A8F10100037078
:100F90002188090501D5452100E06521A0F101085E
:100FA00000F8011C09980FA9A1EB0807FF1D00B16B
:100FB0000120411901EBEA70A1693844081A401E6A
:100FC000A0612078C00602D42046FFF7B4FB099840
:100FD00028B1D4E901219047206A401C2062207882
:100FE000C00622D52046FFF7A6FB1EE0002E04DB3C
:100FF000B34502DD01A8805D00E03020D4E9012185
:101000009047206A401C2062761CAAF101005FEA2A
:10101000000A0AD100F006FAC0680168405CD4E911
:1010200001219047206A401C2062281EA5F101057D
:10103000DCDC07E0D4E9012118F8010B9047206AB5
:10104000401C2062381EA7F10107F3DC2046FFF7A1
:1010500088FB032011B041E62DE9F04F04460D4610
:10106000D21D22F0070089B0D0E9009748463946E2
:1010700002F0B1FF0246F80F01D02D2307E02068EF
:10108000810701D52B2302E0202101EAC0038DF85E
:1010900020300BB1012000E00020032A824601D05D
:1010A000072A04DB2946204600F0C0F93FE12078FA
:1010B000800601D40D2500E0E569C7F30A560D2D21
:1010C00049DA00214FEA175B08464FF00000002F75
:1010D00000F4400007DA00EB80004FF4400100EB21
:1010E000D07001EA60008115012901DD4FF0FF3168
:1010F00000224FEA850CBCF1180F06D31346ACF161
:1011000018004FF08052C24003E04FF4801323FADE
:101110000CF30CF10C0CBCF1200F04D3ACF1200C3F
:1011200009FA0CF001E007FA0CF000294FF0004832
:1011300001DD18B90FE00ED140450CD319EB0209BF
:101140005F4121B9404502D19F4329EA0209BBEB27
:10115000175F00D0761C2088000502D57B487844B4
:1011600002E07A487844193808AA302302F80A3095
:10117000037C0AF10101002E0AF1020A53546A4667
:1011800002DC4FF0300101E04FF031014FF0010877
:101190008DF8001002D0A6F2FF3603E059EA4701AD
:1011A00000D06B4E002D02DC2178090704D54FF0EA
:1011B00002082E218DF80110C44600210BE0C7F370
:1011C00003433F01C35C491C6D1E02F8083005292A
:1011D00008F1010801DA002DF1DC00210CE000EB40
:1011E0001973491C1B786D1E082902F808304FEA54
:1011F000091908F1010801DA002DF0DC21688B06DD
:1012000002D516E0A8F10108E04505DD02EB080370
:1012100013F8013C302BF5D0B8F1000F09DD02EBDB
:10122000080313F8013C2E2B03D1090701D4A8F1C0
:101230000108002D05DD3E2102F808106D1E08F1A1
:101240000108407C002E02F8080008F1010804DAC9
:101250002D20764202F8080002E02B2002F8080058
:101260000A214FF47A70864208F101080BDB96FBE5
:10127000F0F3303302F8083096FBF0F308F1010880
:1012800000FB136601E0642E0CDB642096FBF0F398
:10129000303302F8083096FBF0F308F1010800FB48
:1012A000136601E00A2E06DB96FBF1F0303002F8FF
:1012B000080008F1010896FBF1F001FB10603030E6
:1012C00002F80800A16908F1010808EB050202EB29
:1012D0000A00081AA0612078C00602D42046FFF751
:1012E0002AFA216A08AE01EB0A00206204E0D4E980
:1012F000012116F8010B9047BAF1010AF7D22078C4
:10130000C00602D52046FFF716FA6E4609E016F829
:10131000010B3E280FD0D4E901219047206A401CE0
:101320002062B8F10108F2D22046FFF71AFA09B09C
:101330000320BDE8F08F206A2844206203E0D4E94E
:101340000121302090476D1EEBD3F8E7656800005F
:1013500002FCFFFF10B5436913B1AFF3008001E059
:10136000FFF7D6FA012010BD128800F12401828413
:101370000022C2840122EDE711684FF0FF32E9E755
:10138000007B00F08000704770B516460C4605469D
:1013900000F040F8036893F80101012806D0FF2C03
:1013A0000FD8185D68B101202C7070BDD3F807010B
:1013B0003246214603F2071303442846BDE8704035
:1013C00018474FF0FF3070BD754600F0EBF8AE46A1
:1013D00005006946534620F00700854618B020B541
:1013E000FEF782FFBDE820404FF000064FF00007F7
:1013F0004FF000084FF0000B21F00701AC46ACE8BD
:10140000C009ACE8C009ACE8C009ACE8C0098D4629
:101410007047000010B500F005F8001D10BD00BFBA
:101420001560000000487047BC3A00202DE9F041EB
:101430001F46044603260168072A01F4006004DB06
:1014400008B116A505E016A503E008B115A500E052
:1014500015A521F010002060A069C01EA0610FB189
:10146000401EA0612046FFF766F94FB1D4E9012183
:1014700038469047206A401C2062C01C206206E06B
:10148000206AFAE7D4E9012115F8010B9047761E8E
:10149000F8D22046FFF765F9BDE8F0814E414E00D5
:1014A0006E616E00494E4600696E66002DE9F04798
:1014B000814616468AB0354878440DC88DE80D003F
:1014C00032487844801C03AC0DC884E80D0041F616
:1014D0009B300844372190FBF1F290FBF1F5A5F128
:1014E000800501FB12041B3C02D56442012000E090
:1014F0000020DFF898A080460027FA44AAF1BE0A2F
:101500000EE0E0070AD03246684607EB47010123A8
:101510000AEB810100F01BFB8DE8070064107F1CC3
:10152000002CEED1194F7F44AE3F19E0E80715D0EB
:1015300007EB04100DF1180A90E80E008AE80E007F
:10154000C068F04201D1981908903246012306A9DB
:1015500003A800F0FCFA03AB83E807006D10641CDD
:10156000002DE3D14FF0010332466946B8F1000F78
:1015700003A802D000F0D6FA01E000F0E8FAC9E9C9
:101580000001C9F808200AB0BDE8F0879C6500009A
:1015900010B50446AFF300802046BDE81040FEF7CA
:1015A00042BE0000004870479C3A00204FF0013CCA
:1015B00050F8042B51F8043B9A4221D1A2EB0C03C2
:1015C000934313EACC1317D150F8042B51F8043B82
:1015D0009A4215D1A2EB0C03934313EACC130BD11F
:1015E00050F8042B51F8043B9A4209D1A2EB0C03AA
:1015F000934313EACC13DBD04FF00000704700BFD9
:10160000D01A01BAB1FA81F101F0180122FA01F001
:10161000CB40C1F12001DBB2C0B2C01A2CFA01F3F9
:10162000D11A914311EAC311E6D170475FEA400C29
:1016300008BF91F0000F4FEA8C234FEAC12243EA22
:1016400051514FEA1C5018BF00F5F0404FEA3000EE
:1016500018BF41F000415FEA6C5C00F02980BCF1EA
:10166000FF3F08BF40F080407047130C06BF1204D4
:101670004FF0100C4FF0000C130E04BF12020CF1CF
:10168000080C130F04BF12010CF1040C930F04BFDC
:1016900092000CF1020CD30F04BF52000CF1010CAC
:1016A00011464FF00002A0F11F00A0EB0C007047A4
:1016B00011F0004F08BF704731F000413FF4D5AF43
:1016C0000B0C06BF09044FF0100C4FF0000C0B0E72
:1016D00004BF09020CF1080C0B0F04BF09010CF147
:1016E000040C8B0F04BF89000CF1020CCB0F04BF5C
:1016F00049000CF1010CCCF12003A0EB0C0022FA04
:1017000003F302FA0CF241EA030100F10100704711
:1017100020F07F4C80EA030023F07F47ACEB070307
:1017200003F57C5300F0004003F1FF032DE98049ED
:101730004FEA154B09B44FEA144325EA0B4E24EA4D
:1017400003480FF2042606EB132749083E785FEAA8
:10175000320203FB0667C7F5000707FB06F64FEAF0
:1017600054374FEAD64606F1020607FB066CCCF169
:10177000005C4FEA1C472CEA074C07FB06F40CFB05
:1017800006F504EB15464FEA961634BF00204FF0DD
:1017900000404FEAD13706FB07FC4FEA1C4C0CFB1C
:1017A0000BF7D21B03FB0CF761EB07010CFB0EF7E9
:1017B000B0EB074072EB17420CFB08F734BFA2EB0B
:1017C0000742B2EB074261EB17414FEA0C444FEA84
:1017D000910706FB07FC4FEA1C4C0CFB0BF7B0EB28
:1017E000C74072EB573203FB0CF734BFA2EBC74282
:1017F000B2EBC74261EB57310CFB0EF7B0EBC70001
:1018000072EB57720CFB08F734BFA2EBC702B2EBC6
:10181000C70261EB5771039F4FEA816141EA921160
:1018200004EBCC044FEAD1374FEA826206FB07FC97
:1018300042EA90124FEA80604FEA1C4C0CFB0BF717
:10184000D21B03FB0CF761EB07010CFB0EF7B0EBAF
:10185000074072EB17420CFB08F734BFA2EB0742BC
:10186000B2EB074261EB17414FEA8C554FEA910703
:1018700004EB9C2406FB07FC4FEA1C4C0CFB0BF70B
:10188000B0EBC74072EB573203FB0CF734BFA2EB4F
:10189000C742B2EBC74261EB57310CFB0EF7B0EB1E
:1018A000C70072EB57720CFB08F734BFA2EBC702FC
:1018B000B2EBC70261EB577115EB4C254FEA816122
:1018C00041EA92114FEA82624FEAD13742EA90121E
:1018D00006FB07FC44F100044FEA80604FEA1C4C11
:1018E0000CFB0BF7D21B03FB0CF761EB07010CFBA6
:1018F0000EF7B0EB074072EB17420CFB08F734BF52
:10190000A2EB0742B2EB074261EB174115EB1C1546
:101910004FEA813141EA92414FEA823242EA9042F3
:101920004FEA80304FEA0C7644F1000448EA034362
:101930004EEA0B484FF0000EB2EB080C71EB0307B8
:1019400024BF624639464EEB0E0E4FF0000B0018D6
:10195000524149414BEB0B0BB2EB080C71EB030707
:101960007BF1000B24BF624639464EEB0E0E4FF062
:10197000000B0018524149414BEB0B0BB2EB080C2A
:1019800071EB03077BF1000B24BF624639464EEB37
:101990000E0E51EA020718BF46F0010616EB0E764E
:1019A00055F1000254F1000103D5BDE88901BDE8FD
:1019B0000088BDE88901BDE80048B619524141EBF5
:1019C0000101A3F10103704780807F7E7D7C7B7ADB
:1019D0007978777676757473727171706F6E6E6DDB
:1019E0006C6C6B6A6A696868676666656464636381
:1019F00062616160605F5F5E5E5D5D5C5C5B5B5A07
:101A00005A59595858575756565555555454535373
:101A100052525251515050504F4F4F4E4E4D4D4DCE
:101A20004C4C4C4B4B4B4A4A4A4949494848484719
:101A30004747474646464545454444444443434357
:101A40004342424242414141002B9C4630D4770000
:101A50002BD01CB54FEA370703B44FF010004FF0FE
:101A60001001BAF1000F06D0BCF1000FDCBF40F04E
:101A7000080040F008014FF000000FBCBDE8104026
:101A80000BF1010BBBF1010F08BF5FEA170722BF83
:101A900012F1010211F101014FF0004143F1000385
:101AA00000F0004043EA00007047F9D35708D0E740
:101AB00046EA064613F1400F4FEA16461FDD13F1C2
:101AC000200FDFBF16430A46002120335B42BED001
:101AD000C3F1200746EA064602FA07F74FEA164620
:101AE00046EA0706C3F1200722FA03F201FA07F7D4
:101AF00021FA03F14FF0000342EA0702A7E746EAA2
:101B0000020646EA06464FEA164646EA0106BCBF0A
:101B100046EA0646360C4FF000034FF000024FF045
:101B2000000194E72DE9804C9A46934670B491E801
:101B3000380007C831EA400C48BF34EA430C03D5EB
:101B4000FFF7E6FDFFF780FFF0BCBDE8008C2DE954
:101B5000804C9A46934670B491E8380007C810F05C
:101B6000804F08BF13F0804F03D100F005F8FFF756
:101B70006BFFF0BCBDE8008C20F07F4780EA0300DB
:101B800023F07F4C07EB0C03A3F57C5300F00040DF
:101B9000A3F1FE0392F0000F00F0B38095F0000F68
:101BA00000F077802DE901494FEA11404FEA1446D1
:101BB00021EA004800FB06FC24EA064708FB06F67B
:101BC00007FB08F800FB07F718EB06484CEB164C30
:101BD0004FEA124B18EB07484FEA15464CEB1740FB
:101BE00022EA0B4E0BFB06FC25EA06470EFB06F627
:101BF00007FB0EFE0BFB07F71EEB064E4CEB164CDD
:101C00004FF000061EEB074E4CEB174B18EB0B0882
:101C100040F1000018EB0E0B58EB000840F10000FB
:101C20008F1A4FF000013CBFC943661B14BFB5EBD0
:101C3000040C00213CBFC943F61B4FEA17444EEA8F
:101C40008E0E27EA04454FEA1C4704FB07622CEA84
:101C5000074C05FB07F70CFB05F604FB0CFC16EB29
:101C6000074642EB174216EB0C4642EB1C421BEBBD
:101C7000060658EB0202414146EA9E0601D5BDE840
:101C80000189B619524141EB0101A3F10103BDE8FD
:101C900001894FEA14454FEA114724EA054621EA33
:101CA000074C05FB07F406FB07F70CFB06F105FBE9
:101CB0000CFC11EB074144EB17444FEA124711EBC0
:101CC0000C4144EB1C4422EA074C05FB07F206FBDF
:101CD00007F70CFB06F605FB0CFC16EB074642EB80
:101CE000174216EB0C4642EB1C456A1854F10001F2
:101CF00048BF7047B619524141EB0101A3F10103FE
:101D0000704795F0000F37D04FEA11424FEA144761
:101D100021EA024624EA074C02FB07F106FB07F71B
:101D20000CFB06F402FB0CFC14EB074441EB1741DF
:101D30004FEA154714EB0C4441EB1C4125EA074CD4
:101D400002FB07F506FB07F70CFB06F602FB0CFC93
:101D500016EB074645EB174516EB0C4645EB1C42C8
:101D6000121951F1000148BF7047B619524141EBB9
:101D70000101A3F1010370474FEA14454FEA1147EF
:101D800024EA054621EA074C05FB07F106FB07F7A5
:101D90000CFB06F24FF0000605FB0CFC12EB0742B1
:101DA00041EB174112EB0C4251EB1C4148BF70470D
:101DB000921841EB0101A3F10103704721B1826840
:101DC00042F00102826003E0826822F00102826038
:101DD0007047000010B504461248844208D1012122
:101DE000401501F001FC0021601501F0FDFB17E03A
:101DF0000D48844208D10121001501F0F5FB0021B6
:101E0000201501F0F1FB0BE00848844208D10121C4
:101E1000C80301F0E9FB00214FF4004001F0E4FBAE
:101E200010BD00000024014000280140003C01409A
:101E3000014600208A6802F004020AB1012000E095
:101E4000002070470146C86C80B2704702460020EF
:101E500013680B400BB1012000E0002070470146E1
:101E600000208A6802F008020AB1012000E0002088
:101E70007047000030B502460020002350680F4C28
:101E800020400D790C6844EA052420435060906896
:101E90000B4C2040D1E902542C434D7944EA4504CF
:101EA00020439060D06A20F470000C7C641EE4B281
:101EB000234340EA0350D06230BD0000FFFEF0FF34
:101EC000FDF7F1FFF0B504460D4600200021092D75
:101ED00011DDE068A5F10A0606EB4607072606FABB
:101EE00007F18843A5F10A0606EB460603FA06F158
:101EF0000843E0600CE0206905EB4507072606FA79
:101F000007F1884305EB450603FA06F10843206113
:101F1000072A0FDA606B561E06EB86071F2606FAA5
:101F200007F18843561E06EB860605FA06F10843BC
:101F3000606322E00D2A0FDA206BD61F06EB8607BE
:101F40001F2606FA07F18843D61F06EB860605FA18
:101F500006F10843206310E0E06AA2F10D0606EBEB
:101F600086071F2606FA07F18843A2F10D0606EB45
:101F7000860605FA06F10843E062F0BD816841F08B
:101F800008018160704721B1826842F4A00282603A
:101F900003E0826822F4A00282607047816841F009
:101FA000040181607047000010B50121034800F072
:101FB00013FD08B1012010BD0020FCE7000C01401A
:101FC00000B587B001214FF4017001F0FDFA4FF424
:101FD000004001F0CDFA0220ADF8040000208DF899
:101FE000070001A9174800F024FC1748FFF7F2FE8C
:101FF000002002908DF80C008DF80D004FF4602049
:1020000004900020059001208DF8180002A90E48C8
:10201000FFF730FF01210C48FFF7D0FE0A48FFF719
:10202000ADFF00BF0848FFF71AFF0028FAD10648A5
:10203000FFF7B4FF00BF0448FFF7FAFE0028FAD10B
:1020400007B000BD000801400024014010B500F0B9
:1020500033FE322002F05AF8012001F01BFC10BDC3
:1020600010B500F02FFF10BD10B5002000F078FE75
:1020700010BD10B5044614B900F0F6FD01E000F003
:1020800047FE10BD10B50446204600F09BFEFFF74A
:10209000E7FF10BD10B500F0C9FE10BD10B500F08F
:1020A000EBFE10BD00BFFEE7002003494871088029
:1020B00008714880887170471601002010B54021D2
:1020C0001D4800F092FC0A2002F020F808231B4A69
:1020D0000221B42000F010FA0A2002F017F80123C0
:1020E000174A2021B42000F007FA0A2002F00EF867
:1020F0000123144AE021B42000F0FEF940210E48EB
:1021000000F075FC0D484178007801EB00200E4985
:1021100008800A48C178807801EB00200A4948808D
:102120000748007848710748007888710020054901
:1021300008700349087010BD00080140000100202C
:102140000C010020320000201601002010B50024F0
:1021500040216C4800F049FC642001F0D7FF23E0E7
:102160000123694A2021B42000F0C6F966480078AE
:10217000812811D1601CC0B20446644909788842A4
:1021800003D10020624908700BE05F4801782246C5
:1021900060A0FEF7CFF804E05B48017862A0FEF78C
:1021A000C9F8642001F0B2FF594800780028D7D15F
:1021B00065A0FEF7BFF8642001F0A8FF0223524A91
:1021C000521C2321B42000F097F9642001F09EFFF7
:1021D00002234D4AD21C2421B42000F08DF9642042
:1021E00001F094FF01235E4A0021B42000F084F93D
:1021F000642001F08BFF5A48007800F0100018B3FB
:1022000019E0F022F321B42000F0C1F95548FEF79F
:1022100091F80023544AF421B42000F037F96420E7
:1022200001F074FF01234E4A0021B42000F064F94C
:10223000642001F06BFF4A48007800F0800000281D
:10224000DFD04AA0FEF776F8642001F05FFF01239B
:10225000514A1946B42000F04FF9642001F056FFAE
:102260004D48007800F070004B49087019E01022CA
:102270000121B42000F08BF9642001F047FF012315
:10228000454A1946B42000F037F94348007800F079
:1022900070004149087041A0FEF74CF8642001F03D
:1022A00035FF3D4800781028E1D1642001F02EFF71
:1022B00001232B4A0021B42000F01EF9642001F014
:1022C00025FF0123344A1946B42000F015F9642093
:1022D00001F01CFF40210B4800F089FB642001F055
:1022E00015FF0123364AE021B42000F005F92A4801
:1022F0000378334802781A48017832A0FEF71AF8BA
:1023000010BD0000000801400C0100203400002036
:102310003300002069643D25642C636F727265632D
:1023200074202564210D0A0069643D25642C696EC2
:10233000636F72726563742C636F6E74696E756916
:102340006E672E2E2E0D0A00696420636F7272650F
:1023500063742C696E6974696E672E2E2E0D0A00E7
:1023600031000020707A00083500002043435338C4
:10237000313120697320616C726561647920696E06
:10238000206170706C69636174696F6E206D6F6439
:1023900065210D0A00000000300000207472796988
:1023A0006E6720746F20656E746572206D65617351
:1023B000757265206D6F64652E2E2E0D0A0000006B
:1023C000320000207374617475733D25642065725A
:1023D000726F725F69643D2564206D65617375720B
:1023E000654D6F64653D2564200D0A0008B5012127
:1023F000042001F0E9F84020ADF8000003208DF83A
:10240000020010208DF803006946054800F011FA1B
:102410004021034800F0EBFA00F004F808BD00008A
:102420000008014008B50121042001F0CDF830205A
:10243000ADF8000001208DF8020014208DF8030093
:102440006946054800F0F5F910200349103108608D
:102450002020086008BD00000008014000B52020D1
:102460000949086010200860052001F0D1FD102006
:102470000549091F0860052001F0CAFD2020024916
:10248000091F086000BD0000140801402DE9F0415B
:1024900007460E4614461D4600F086FB20B9FFF79E
:1024A000DDFF0020BDE8F081384600F055FB00F06C
:1024B000ABFB18B9FFF7D2FF0020F3E7304600F07E
:1024C0004BFB00F0A1FB18B9FFF7C8FF0020E9E7BC
:1024D0000CE014F8010B00F03FFB00F095FB18B97D
:1024E000FFF7BCFF0020DDE7681EC5B2002DF0D16C
:1024F000FFF7B4FF0120D5E72DE9F04106460F466E
:1025000014461D4600F050FB20B9FFF7A7FF00203E
:10251000BDE8F081304600F01FFB00F075FB18B9F4
:10252000FFF79CFF0020F3E7384600F015FB00F0B2
:102530006BFB18B9FFF792FF0020E9E700F034FBCE
:1025400018B9FFF78BFF0020E2E7711CC8B200F05A
:1025500003FB00F059FB18B9FFF780FF0020D7E715
:1025600008E000F0B3FA04F8010B002000F0D8FAFC
:10257000681EC5B2681E0028F3D100F0A7FA2070CB
:10258000012000F0CDFAFFF769FF0120C0E770B528
:1025900006460C46154600F007FB18B9FFF75EFF2C
:1025A000002070BD304600F0D7FA00F02DFB18B9BE
:1025B000FFF754FF0020F4E7204600F0CDFA00F0CA
:1025C00023FB18B9FFF74AFF0020EAE7284600F08E
:1025D000C3FA00F019FB18B9FFF740FF0020E0E74D
:1025E000FFF73CFF0120DCE700200E4908700E4891
:1025F0000078012804D100200B49087001207047A1
:1026000009480078022804D10020074908700220F8
:10261000F5E70548007818B9002003490870EEE78F
:102620000020ECE7450000203E00002010B500240B
:1026300000F026F803E0641C012001F043FD802136
:102640000E4800F0C9F908B1642CF4DB642C01DBFE
:10265000012010BD002403E0641C012001F032FDC4
:102660008021064800F0B8F908B9642CF4DB642C2A
:1026700001DB0120EDE70020EBE70000000801404E
:1026800008B50121042000F09FFF8020ADF8000074
:1026900028208DF8030003208DF8020069460448C5
:1026A00000F0C7F88021024800F0A1F908BD000041
:1026B0000008014008B50121042000F085FF8020BA
:1026C000ADF8000010208DF8030003208DF8020003
:1026D0006946044800F0ADF88021024800F087F90F
:1026E00008BD00000008014010B512E0FFF7E2FF4E
:1026F00080210C4800F079F9142001F007FD8021B9
:10270000084800F074F9232001F0DCFC06A0FDF776
:1027100011FEFFF78BFF0028E8D108A0FDF70AFEA5
:1027200010BD0000000801404448543131BCECB2F7
:10273000E2D6D02E2E2E2E2E2E00000044485431EC
:1027400031BCECB2E2B3C9B9A600000010B5002458
:1027500003E0641C012001F0B5FC80210F4800F06B
:102760003BF908B1642CF4DB002403E0641C012075
:1027700001F0A8FC8021094800F02EF908B9642C6A
:10278000F4DB282001F09EFC8021044800F024F9AD
:1027900008B1012010BD0020FCE700000008014046
:1027A00070B50024002504E06400FFF7CFFF044368
:1027B0006D1C082DF8DB204670BD70B586B005464F
:1027C0000E4600F021F8FFF731FFC0B9002405E004
:1027D000FFF7E6FF01A941F82400641C052CF7DB94
:1027E000DDE9010108440399084404990844059966
:1027F000884207D1019830600398286002E00120E8
:1028000006B070BD0020FBE710B5FFF753FF802135
:10281000064800F0EAF8142001F078FC8021034813
:1028200000F0E5F81E2001F04DFC10BD000801404D
:1028300070472DE9F04102460025002600200023C4
:102840000024002791F803C00CF00F0591F803C095
:102850000CF0100CBCF1000F03D091F802C04CEA50
:10286000050591F800C0BCF1000F31D014680020BC
:102870002BE04FF0010C0CFA00F3B1F800C00CEAA9
:1028800003069E4220D183004FF00F0C0CFA03F791
:10289000BC4305FA03FC4CEA040491F803C0BCF104
:1028A000280F06D14FF0010C0CFA00FCC2F814C03E
:1028B0000AE091F803C0BCF1480F05D14FF0010CBC
:1028C0000CFA00FCC2F810C0401C0828D1D31460D8
:1028D000B1F800C0BCF1FF0F34DD546800202EE0D9
:1028E00000F1080C4FF0010808FA0CF3B1F800C031
:1028F0000CEA03069E4221D183004FF00F0C0CFA24
:1029000003F7BC4305FA03FC4CEA040491F803C046
:10291000BCF1280F05D100F1080C08FA0CF8C2F838
:10292000148091F803C0BCF1480F07D100F1080CE6
:102930004FF0010808FA0CF8C2F81080401C082873
:10294000CED35460BDE8F081F0B50A4600230024E0
:102950000021002500F00046B6F1004F02D11D4EC7
:10296000F16901E01B4E7168C0F3034583B200F4C6
:102970004016B6F5401F08D121F07061154E7668FB
:1029800026F07066134F7E6012E000F48016B6F5F4
:10299000801F06D1032606FA05F4A14341F07061B9
:1029A00006E0460D360103FA06F6B14341F07061C8
:1029B00022B1460D360103FA06F6314300F0004617
:1029C000B6F1004F02D1034EF16101E0014E71609A
:1029D000F0BD0000000001400246002093680B405B
:1029E0000BB1012000E00020704741617047016198
:1029F0007047000010B5044607230122214609480C
:102A0000FFF760FA01210748FFF7BDFA00BF022176
:102A10000448FFF71BFA0028F9D00248FFF712FA22
:102A200010BD0000002401402DE9F04107460C468E
:102A30000025002608E03846FFF7DCFF05440520A6
:102A400001F064FB701CC6B2A642F4DBB5FBF4F0E7
:102A500080B2BDE8F08100002DE9F84F04468946B8
:102A60004FF0000AD346012000F014FF102000F0C0
:102A700011FF00F0D3FC124890F800A0407800EB62
:102A80000A201FFA80FA504604F010FF009004F06C
:102A9000C5FE07464FF033320A4B04F013FD0546DE
:102AA00004F0DEFC8346584604F0E4FE000A207081
:102AB000584604F0DFFE89F80000BDE8F88F0000FA
:102AC000360000203333F33F00BFFEE770B500242B
:102AD000202012490860012001F09AFA002518E030
:102AE0006006040E10200D49086020210B481038A4
:102AF000FFF772FF08B144F00104052001F088FAE5
:102B000010200649091D0860052001F081FA681CA3
:102B1000C5B2082DE4DB204670BD0000100801405E
:102B200010B50446012C03D120200A49086003E0B7
:102B300020200849091D086010200649086005206A
:102B400001F066FA10200349091D0860052001F014
:102B50005FFA10BD1008014030B50446102011493D
:102B6000086000251BE004F0800020B120200D4902
:102B7000091F086002E020200A4908601020094966
:102B8000091F0860052001F043FA1020054908607C
:102B9000052001F03DFA6006040E681CC5B2082D40
:102BA000E1DB30BD1408014010B520201549086054
:102BB000052001F02DFA102012490860052001F0CF
:102BC00027FA20210F481038FFF706FF08B9002028
:102BD00010BD20200B49091D0860052001F018FADE
:102BE000202108481038FFF7F7FE08B10020EFE772
:102BF00010200449091D0860052001F009FA012090
:102C0000E6E700001008014010B500242020154917
:102C100008601020086005E0601C84B2B4F5FA7FFB
:102C200000D106E020210F481038FFF7D5FE00281C
:102C3000F2D100BF20210B481038FFF7CDFE28B19C
:102C400010200849091D0860002010BD052001F072
:102C5000DFF910200349091D0860052001F0D8F9AB
:102C60000120F2E71008014010B500200F4908606C
:102C70000F48006820F470200D490860084600687D
:102C800040F44030086000200A49C1F89001022059
:102C900001F018FA012005490860022001F012FA3B
:102CA00000200449C1F88C0110BD00008C81214234
:102CB000000C01400080214208B501210F48FFF7B8
:102CC00043FE01210E48FFF73FFE0121082000F0DE
:102CD0007BFC1820ADF8000010208DF803000320C5
:102CE0008DF8020069460748FFF7A3FD0120064959
:102CF00008600649C1F8900108BD000000043000DA
:102D000000023000000C01408C81214200802142F1
:102D100010B500200F4908600F48006820F47020AB
:102D20000D4908600846006840F440300860012002
:102D30000A49C1F89001022001F0C4F901200549B7
:102D40000860022001F0BEF900200449C1F88C019E
:102D500010BD00008C812142000C01400080214206
:102D600070B5064600241448006820F4702012490B
:102D700008600846006840F400200860002516E05E
:102D800000200E490860022001F09CF901200C4946
:102D9000C1F88C016006040E08487C38006808B150
:102DA000601CC4B2012001F08DF9681CC5B2082D69
:102DB000E6DB204670BD0000000C01408C81214202
:102DC0000080214270B504461548006820F4702048
:102DD000134908600846006840F44030086000204D
:102DE00010490860002517E0E0090E49091D086038
:102DF0006006040E022001F065F901200A49C1F8BD
:102E00008C01022001F05EF90020064908600220D2
:102E100001F058F9681CC5B2082DE5DB70BD000053
:102E2000000C01408C8121420080214210B50F48E6
:102E3000006820F470200D4908600846006840F4DE
:102E40004030086001200A4908600A49C1F88C0135
:102E5000042001F037F9002005490860042001F042
:102E600031F900200349C1F88C0110BD000C01406C
:102E7000908121420080214210B50F48006820F463
:102E800070200D4908600846006840F44030086032
:102E900000200A4908600A49C1F89001042001F0A5
:102EA00011F90120054908600549C1F89001042085
:102EB00001F008F910BD0000000C01408C81214296
:102EC0000080214210B500241448006820F47020CE
:102ED000124908600846006840F40020086001209C
:102EE0000F49086001F0EEF801200E49C1F88C018D
:102EF00001F0E8F807E0601CC4B2FA2C03DDFFF72C
:102F0000BBFF012010BD0648803800680028F2D1C0
:102F10000349091F086000BFF4E70000000C0140EE
:102F2000908121420080214208B50121102000F04B
:102F30004BFB4FF40050ADF8000010208DF803005B
:102F400003208DF8020069460448FFF772FC4FF435
:102F500000510248FFF74BFD08BD00000010014082
:102F600010B5002405E01EA0FDF7E4F9322001F0C1
:102F7000CDF8FFF719F80028F5D101201D490860A8
:102F800000201D49C1F880011CA0FDF7D3F91420D1
:102F900001F0BCF81EE01EA0FDF7CCF91FA002F066
:102FA0007DF9C82001F0B2F8FFF71EFB0446214668
:102FB0001CA0FDF7BFF9022C04D11EA0FDF7BAF941
:102FC000002403E014B91FA0FDF7B4F940F2DC506F
:102FD00001F09CF8002CDED01EA0FDF7ABF910BD6F
:102FE0004C4F52415F436865636BD5FDC3A60D0A24
:102FF000000000008481214200802142BCECB2E24A
:103000004C4F5241CAC7B7F1D4DACFDF0D0A0000E6
:10301000B7A2CBCD3A41540D0A00000041540D0A2D
:10302000000000004C6F72615F53746174653A2553
:10303000640D0A00BDD3CAD5B5BD4552524F520DDD
:103040000A000000BBB9CEB4BDD3CAD5CDEA0D0A83
:10305000000000004C4F5241BCECB2E2B3C9B9A62B
:103060000D0A000008B50121082000F0ADFA10207B
:103070008DF803000220ADF8000003208DF8020057
:1030800069460F48FFF7D5FB02210D48FFF7ADFC5D
:1030900028208DF803000120ADF8000003208DF8F2
:1030A000020069460648FFF7C4FB01210448FFF708
:1030B0009CFCFFF755FF00F005F8012008BD00005B
:1030C000000C014010B505E053A0FDF733F91420C2
:1030D00001F01CF8FEF768FF0028F5D101205349E4
:1030E000086000205249C1F880010A2001F00EF862
:1030F00050A0FDF71FF952A000F0F0FA0C2001F0EB
:1031000005F853A0FDF716F954A000F0EDF90C20D6
:1031100000F0FCFF54A0FDF70DF958A000F0DEFA16
:103120000C2000F0F3FF59A0FDF704F95AA000F0BD
:10313000DBF90C2000F0EAFF0C2000F0E7FF59A0BB
:10314000FDF7F8F85BA000F0C9FA0C2000F0DEFFF4
:103150005BA0FDF7EFF85EA000F0C6F90C2000F0D0
:10316000D5FF5EA0FDF7E6F860A000F0B7FA0C20EE
:1031700000F0CCFF60A0FDF7DDF863A000F0B4F92B
:103180000C2000F0C3FF63A0FDF7D4F865A000F0A9
:10319000A5FA0C2000F0BAFF65A0FDF7CBF868A0F7
:1031A00000F0A2F90C2000F0B1FF68A0FDF7C2F812
:1031B0006AA000F093FA0C2000F0A8FF6AA0FDF7C7
:1031C000B9F86DA000F090F90C2000F09FFF6DA001
:1031D000FDF7B0F872A000F081FA0C2000F096FF25
:1031E00072A0FDF7A7F878A000F07EF90C2000F09F
:1031F0008DFF78A0FDF79EF87AA000F06FFA0C2002
:1032000000F084FF7AA0FDF795F8002007490860D8
:103210000749C1F8800110BD4C4F52415F5365749E
:103220005F4D6F6465D5FDC3A60D0A008481214200
:10323000008021420D0AC9E8D6C3B5D8D6B73A00F6
:1032400041542B414444523D30302C303100000079
:103250000D0AB6C1C8A1B5D8D6B73A0041542B4122
:103260004444523F000000000D0AC9E8D6C3D0C54F
:10327000B5C0BCB0CBD9C2CA3A00000041542B57EC
:103280004C524154453D32332C3500000D0AB6C135
:10329000C8A1D0C5B5C03A0041542B574C52415437
:1032A000453F00000D0AC5E4D6C3B7A2C9E4B9A6DC
:1032B000C2CA3A0041542B54504F5745523D330037
:1032C0000D0AB2E9D1AFB7A2C9E4B9A6C2CA3A00A1
:1032D00041542B54504F5745523F00000D0AC5E44E
:1032E000D6C3B9A4D7F7C4A3CABD000041542B4329
:1032F000574D4F44453D30000D0AB2E9D1AFB9A456
:10330000D7F7C4A3CABD000041542B43574D4F44C7
:10331000453F00000D0AC5E4D6C3B7A2CBCDD7B454
:10332000CCAC000041542B544D4F44453D3100007E
:103330000D0AB2E9D1AFB7A2CBCDD7B4CCAC000067
:1033400041542B544D4F44453F0000000D0AC5E445
:10335000D6C3CBAFC3DFCAB1BCE4000041542B5786
:103360004C54494D453D30000D0AB2E9D1AFCBAFC9
:10337000C3DFCAB1BCE4000041542B574C54494D43
:10338000453F00000D0AC5E4D6C3B2A8CCD8C2CAD6
:10339000A3ACCAFDBEDDD0A3D1E9CEBB00000000C6
:1033A00041542B554152543D372C30000D0AB2E99F
:1033B000D1AFB2A8CCD8C2CAA3ACCAFDBEDDD0A3DF
:1033C000D1E9CEBB0000000041542B554152543F7F
:1033D000000000000D0AC5E4D6C3B1A3B4E6C4A33F
:1033E000CABD000041542B464C4153483D300000BB
:1033F0000D0A2A2A2A2A2A2A2A2A2A2A6C6F726164
:10340000C5E4D6C3CDEAB3C92A2A2A2A2A2A2A2AF7
:103410002A2A2A2A0D0A000000BFFEE710B5FEF78F
:1034200039FE4720FEF72EFE00240EE0FEF71CFEBC
:103430000A490855032C03D10120FEF71AFE02E0C9
:103440000020FEF716FE601CC4B2032CEEDBFEF774
:1034500025FE052000F05AFE10BD000036000020B9
:103460007047000070B5002100230F22C47804B318
:10347000154C246804F4E064C4F5E064210AC1F149
:103480000403CA40447804FA03F1847814402143C9
:1034900009010E4C0678A155047804F01F0501249B
:1034A000AC4005786D11AD0005F1E025C5F800418F
:1034B00009E0047804F01F050124AC40044D0678AF
:1034C000761145F8264070BD0CED00E000E400E008
:1034D00080E100E002490143024A116070470000A8
:1034E0000000FA050CED00E070B50546002400BFB1
:1034F0000A2000F00BFE18E029460DA001F0CEFED8
:10350000142000F003FEFFF76FF8044621460AA0DE
:10351000FCF710FF022C04D10BA0FCF70BFF0024DA
:1035200003E014B90DA0FCF705FF002CE4D070BD3A
:1035300025730D0A000000004C6F72615F537461C7
:1035400074653A25640D0A00B2E9D1AFCAB1BDD3A2
:10355000CAD5B5BD4552524F520D0A00B2E9D1AF9E
:10356000BBB9CEB4BDD3CAD5CDEA0D0A0000000068
:1035700001460020034A506820F440400843506050
:10358000704700000010024029B1064AD269024388
:10359000044BDA6104E0034AD2698243014BDA61E9
:1035A000704700000010024029B1064A1269024328
:1035B000044B1A6104E0034A12698243014B1A6109
:1035C000704700000010024029B1064A9269024388
:1035D000044B9A6104E0034A92698243014B9A6169
:1035E000704700000010024029B1064AD268024329
:1035F000044BDA6004E0034AD2688243014BDA608C
:10360000704700000010024030B500210022002465
:1036100000232D4D6D6805F00C0121B1042905D062
:10362000082923D105E0294D056022E0274D0560DA
:103630001FE0254D6D6805F47012234D6D6805F48B
:103640008034022505EB92421CB9214D554305609B
:103650000BE01D4D6D6805F400351DB11C4D554343
:10366000056002E0194D5543056002E0174D056005
:1036700000BF00BF144D6D6805F0F0010909154D3C
:103680006B5C0568DD4045600F4D6D6805F4E061D9
:10369000090A104D6B5C4568DD4085600A4D6D6818
:1036A00005F46051C90A0B4D6B5C4568DD40C5608F
:1036B000054D6D6805F44041890B074D6B5CC5688D
:1036C000B5FBF3F5056130BD0010024000127A0031
:1036D00000093D00560000206600002070B5054638
:1036E000002400BF0A2000F011FD18E029460DA0BB
:1036F00001F0D4FD142000F009FDFEF775FF04462B
:1037000021460AA0FCF716FE022C04D10BA0FCF700
:1037100011FE002403E014B90DA0FCF70BFE002CF1
:10372000E4D070BD25730D0A000000004C6F72617B
:103730005F53746174653A25640D0A00C9E8D6C305
:10374000CAB1BDD3CAD5B5BD4552524F520D0A00BC
:10375000BBB9CEB4BDD3CAD5CDEA0D0A0000000076
:103760002DE9F04180460E4617461C46002540468E
:1037700001F0BCFD304601F0B9FD384601F0B6FD60
:1037800003E0605D01F0B2FD6D1C605D2428F8D19E
:1037900001F0ACFD242001F0A9FD0D2001F0A6FDF3
:1037A0000A2001F0A3FDBDE8F08110B500F002F899
:1037B00010BD00000CB50020019000903348006857
:1037C00040F480303149086000BF3048006800F4A0
:1037D000003000900198401C0190009818B90198A1
:1037E000B0F5A06FF1D12948006800F4003010B1A5
:1037F0000120009001E0002000900098012843D1B2
:103800002348006840F0100021490860084600681D
:1038100020F0030008600846006840F002000860DD
:103820001A48406819494860084640684860084698
:10383000406840F4806048600846406820F47C108E
:1038400048600846406840F4E81048600846006850
:1038500040F08070086000BF0C48006800F0007005
:103860000028F9D00948406820F003000749486063
:103870000846406840F00200486000BF03484068C6
:1038800000F00C000828F9D10CBD00000010024027
:103890000020024010B50446FEF7FCFB4620FEF770
:1038A000F1FB2046FEF7EEFBFEF7F8FB10BD042807
:1038B00008D14FF0E021096941F004014FF0E02206
:1038C000116107E04FF0E021096921F004014FF098
:1038D000E0221161704710B503F0E6F9012801D02C
:1038E00002F07CFD10BD000010B51348006840F0E8
:1038F00001001149086008464068104908400E4917
:103900004860084600680E4908400B4908600846B0
:10391000006820F4802008600846406820F4FE001B
:1039200048604FF41F008860FFF73FFF4FF00060D2
:103930000449086010BD0000001002400000FFF8BC
:10394000FFFFF6FE08ED00E010B50121074800F08A
:1039500016F9012804D106480068401C0449086093
:103960000121024800F0FCF810BD000000040040F6
:103970002C00002038B50121434800F000F901284F
:103980007CD14248008840F4004040490880084605
:103990000088C0F30D013EA0FCF7CCFC414942A0D9
:1039A000FCF7C8FC42A13F48FCF7FAFD50B10020EB
:1039B000364908804FF4C8713A48FCF76FFE012081
:1039C0003C4908703CA13748FCF7EAFD50B10020A3
:1039D0002E4908804FF4C8713248FCF75FFE022080
:1039E0003449087036A12F48FCF7DAFDF0B1002009
:1039F000264908804FF4C8712A48FCF74FFE6A46F2
:103A000001213148006802F089FB044614B92FA057
:103A1000FCF790FC00BF009838B14FF0805031495E
:103A20000860BFF34F8FBFF36F8F00BF2EA11D48FB
:103A3000FCF7B6FDF0B10020144908804FF4C871BE
:103A40001848FCF72BFE6A4602211F48006802F066
:103A500065FB044614B926A0FCF76CFC00BF009877
:103A600038B14FF080501F490860BFF34F8FBFF34C
:103A70006F8F00BF0021044800F075F80121024853
:103A800000F06EF838BD0000000800404200002041
:103A9000BDD3CAD5CDEAB3C92C20B3A4B6C825641A
:103AA0000D0A00002001002025730D0A000000000F
:103AB0004F4B00003E0000204552524F5200000084
:103AC000737461727400000014000020BDD3CAD565
:103AD000B5BD73746172742CD6C331B4EDCEF30DE1
:103AE0000A00000004ED00E07265626F6F74000070
:103AF000BDD3CAD5B5BD7265626F6F742CD6C331A4
:103B0000B4EDCEF30D0A00007FB505460C46012149
:103B10000420FFF739FDADF80850ADF8044000204F
:103B2000ADF80A00ADF8060001A90C4800F044F811
:103B300001221146094800F033F81E208DF80000DC
:103B400006208DF8010000208DF8020001208DF87C
:103B500003006846FFF786FC7FBD000000080040B8
:103B6000CA430282704721B1028842F001020280FA
:103B700004E002884FF6FE731A400280704730B5A9
:103B80000246002000230024158A05EA01039589D6
:103B900005EA010413B10CB1012000E0002030BDA2
:103BA0001AB183890B43838102E083898B4383812C
:103BB0007047818470470000002202881D4B9842A4
:103BC0000ED01D4B98420BD0B0F1804F08D01B4B4C
:103BD000984205D01A4B984202D01A4B984204D111
:103BE0004FF68F731A404B881A43174B984207D0F1
:103BF000164B984204D04FF6FF431A40CB881A4325
:103C000002808B8883850B8803850A4B98420BD0F2
:103C1000094B984208D00E4B984205D00D4B984264
:103C200002D00D4B984201D10B7A03860123838287
:103C300070470000002C01400034014000040040A7
:103C400000080040000C004000100040001400403C
:103C500000400140004401400048014010B540F2DE
:103C600025511D4800F0F1F810B31B4800F0A8F9E9
:103C7000C4B21A48008800F40040C8B91748008848
:103C800000F4804060B10A2C03D000201349088062
:103C900020E01248008840F400401049088019E0F4
:103CA0000D2C06D10D48008840F480400B49088057
:103CB00010E00A480088C0F30D0009490C54074879
:103CC0000088401C0549088008460088C72801DD97
:103CD0000020088010BD0000003801405400002082
:103CE0000805002010B540F22551064800F0ADF857
:103CF00038B1044800F064F9C4B22146024800F02B
:103D000064F910BD004400400038014010B540F295
:103D10002551164800F099F8F8B1144800F050F910
:103D2000C4B21348008800F40040B0B910480088BD
:103D3000B0F5C87F12DA00210E48FFF73AFF0C48B1
:103D4000008818B901210B48FFF70DFF08490888C2
:103D5000411C074A118008490C5405E004480088BA
:103D600040F400400249088010BD000000480040B7
:103D700042000020000800402001002021B182897B
:103D800042F40052828104E082894DF6FF731A40AA
:103D90008281704710B504462048844209D1012130
:103DA0008803FFF721FC00214FF48040FFF71CFC43
:103DB00032E01B48844209D101214804FFF7F4FB9B
:103DC00000214FF40030FFF7EFFB25E01548844257
:103DD00009D101218804FFF7E7FB00214FF480207F
:103DE000FFF7E2FB18E01048844209D10121C80422
:103DF000FFF7DAFB00214FF40020FFF7D5FB0BE0C3
:103E00000A48844208D101210805FFF7CDFB0021B3
:103E10004FF48010FFF7C8FB10BD000000380140D0
:103E20000044004000480040004C0040005000406A
:103E300002460020B1F5007F00D100BF13880B407F
:103E40000BB1012000E00020704770B5024600244D
:103E500000230025002040F66A16B14200D100BFC1
:103E6000C1F3421501F01F03012606FA03F3012DE9
:103E700002D19689334006E0022D02D1168A3340E2
:103E800001E0968A33400C12012606FA04F41688E3
:103E9000344013B10CB1012000E0002070BDF0B53A
:103EA0000346002400260025002040F66A17B94288
:103EB00000D100BF1846C1F3421401F01F060127CC
:103EC00007FA06F5012C01D10C3004E0022C01D1D7
:103ED000103000E014301AB107682F43076002E089
:103EE0000768AF430760F0BD2DE9F04786B005468F
:103EF0000E460024A24600BFA1460027B08900B1AB
:103F000000BF2F462C8A4CF6FF700440F088044313
:103F10002C82AC894EF6F3100440B08831890843F6
:103F2000718908430443AC81AC8A4FF6FF400440DA
:103F3000B0890443AC8201A8FFF766FB1F488742A3
:103F400002D1DDF810A001E0DDF80CA0A88900F492
:103F5000004040B10AEBCA0000EB0A10316849008A
:103F6000B0FBF1F807E00AEBCA0000EB0A10316879
:103F70008900B0FBF1F86420B8FBF0F004012009DF
:103F8000642101FB1089A88900F4004040B132206F
:103F900000EBC900B0FBF1F000F00700044308E0BB
:103FA000322000EB09106421B0FBF1F000F00F00AB
:103FB00004432C8106B0BDE8F087000000380140C2
:103FC00001468888C0F308007047C1F30802828068
:103FD000704700BFFEE7490050EAC12018BF042027
:103FE0004A0D18BF40F0010040F2FF72B2EB515F82
:103FF00008BF40F00200012808BF05207047303894
:104000000A2801D2012070470020704700BF704786
:10401000142101FB00F2D0B200BF021EA0F1010387
:10402000D8B2FAD17047000010B50420FFF73FFC6A
:10403000104800681049B0FBF1F0104908700D48B5
:1040400000680D49B0FBF1F44FF47A70444301204D
:104050000B4908804FF0E020006940F002004FF06B
:10406000E021086108464461006940F001000861F0
:1040700010BD00001800002040420F004A00002040
:104080004C00002070B5044602F00EFE012810D04E
:104090000B480088844206D309480088B4FBF0F539
:1040A000284601F0E9FB06480088B4FBF0F100FB6C
:1040B00011444FF47A7104FB01F000F003F870BD75
:1040C0004C00002070B5034600224FF0E0267569D1
:1040D0000D4E367803FB06F44FF0E026B16910E090
:1040E0004FF0E026B06988420BD0884202D20E1A07
:1040F000324402E02E1A0E4432440146A24200D35A
:1041000000E0EDE700BF70BD4A00002030B5044676
:10411000002504E04FF47A70FFF7D4FF6D1CA54230
:10412000F8D330BD00BF054A128802F04002002AD1
:10413000F9D0C2B2014B1B1D1A80704700380140F4
:10414000A2B04FF0000800240020069005908146A0
:10415000002582468346C3E06248006800287CD080
:104160004FF0FF315F48006802F044FC8046B8F130
:10417000010F73D15CA0FCF7DDF807A908A8FEF7D2
:104180001CFB05A906A8FEF767FC14210120FEF719
:104190004BFC0446FDF792FF594840884EF66021DB
:1041A000884212DD012080F3138800BF00BF55480C
:1041B000006800F4E06054490843001D514908605C
:1041C000BFF34F8F00BF00BFFEE74FEA2429E5B2DF
:1041D0004B4800884FEA202A494890F800B04088B0
:1041E00006124748877843794288018847A0FCF740
:1041F000A1F829464CA0FCF79DF800949DF81830D2
:104200004CA0DDE90721FCF795F826208DF8240065
:104210008DF825000898C0B28DF8260023208DF86F
:1042200027000798C0B28DF8280023208DF82900B8
:104230009DF818008DF82A0023208DF82B009DF89A
:1042400014008DF82C0023208DF82D008DF82E9071
:104250008DF82F008DF8305001E037E032E08DF816
:1042600031008DF832A08DF833008DF834B08DF820
:1042700035008DF836608DF837008DF838702420C1
:104280008DF839008DF83A009DF834009DF8321011
:104290009DF82E209DF82C30CDE90032CDE902109A
:1042A0009DF82A309DF828209DF826102AA0FCF7BA
:1042B00041F809AB172200210846FFF751FAFDF734
:1042C000F3FE06E02CA0FCF735F802E02DA0FCF789
:1042D00031F830A0FCF72EF84FF4FA70FFF7D2FE59
:1042E0003AE7000010000020D5FDD4DAD6B4D0D0D3
:1042F000BBF1C8A1CAFDBEDDC8CECEF10D0A0000DB
:10430000160100200CED00E00000FA0565636F3235
:104310003D2564202074766F633D25642069643DEB
:1043200025640D0A0000000053485F4C3A25640DD7
:104330000A000000CEC2B6C83A25642020CAAAB638
:10434000C83A25642020B9E2D5D53A256420204119
:1043500044433A25640D0A0025642020256320206B
:104360002564202025642020256420202564202029
:10437000256420200D0A0000BBF1C8A1CAA7B0DC4B
:104380000D0A0000D0C5BAC5C1BF4E554C4C0D0A30
:1043900000000000BBF1C8A1CAFDBEDDC8CECEF151
:1043A000CDEAB3C90D0A000009E005480068C04322
:1043B0000449C1F8B40140F2DC50FFF763FEF4E7B2
:1043C000B4012242000022421CB54FF44070FFF7B6
:1043D00081F8FFF729FE4FF4E13000F097FFFEF778
:1043E000A3FD00F02FF841F61F416320FFF78CFB7F
:1043F00006E00CA0FBF79EFF4FF4FA70FFF786FE75
:10440000FDF7D2FD0028F4D109481F210023962290
:10441000CDE9001007A10A4802F016FC01F0DEFC0D
:1044200000201CBD4C4F5241D5FDC3A60D0A000013
:104430000000002073746172745F7461736B00001C
:10444000B551000800B509494FF4C072C868002191
:1044500000F024F805494FF440628868002100F01C
:104460001DF801200149087400BD00006C00002007
:104470000022002106E00848C06830F8110000B1B1
:10448000521C491CC029F6D364205043C023B0FB02
:10449000F3F0C0B2704700006C00002030B5034656
:1044A00001E003F8011B141EA2F10102F9D130BD95
:1044B0002DE9F04105460E46264807682648006863
:1044C000001D00F0D1FF50B92348006890F82C106F
:1044D0000120884021490968814320480160681C07
:1044E000D8B9D6B11E4948681B49096888601A497D
:1044F00082680968CA6018490968091D82685160A4
:1045000015490968091D8160154A134909684A61FE
:1045100011460968491C11601AE07C190E480068B0
:104520004460BC4207D20C480168091D0D48006870
:1045300000F0D4FF0CE008480168091D0A48006833
:1045400000F0CCFF09480068844201D207480460AB
:10455000BDE8F08194000020800000209800002039
:10456000601600208800002084000020B000002099
:1045700010B5044600F0D8FF31480068401C3049AF
:1045800008603048006840B92E480460084600685A
:1045900001280DD100F016FA0AE02B48006838B95E
:1045A00028480068C06AE16A884201D8254804604A
:1045B00026480068401C2549086008460068606479
:1045C00094F82C10012088402149096808432049AB
:1045D0000860E16A01EB81011E4A02EB8101486833
:1045E000A0608268E260211D826851608160E16A9A
:1045F00001EB8101174A02EB81026261E16A01EB82
:104600008101144A52F82110491CE26A02EB82022D
:10461000104B43F8221000F0CBFF0B48006868B144
:1046200008480068C06AE16A884207D24FF08050AB
:1046300009490860BFF34F8FBFF36F8F10BD0000B3
:1046400090000020800000209C000020AC00002092
:10465000980000209013002004ED00E010B500F059
:1046600063FF10480068D0B90F4800F027FF0F48DB
:1046700000F024FF0C480E4908600C480D49086002
:1046800000221021052001F0C3FE064908600846FB
:10469000006820B108A10348006801F089F800F023
:1046A00087FF10BDC8000020741600208816002067
:1046B000C0000020C4000020546D725100000000B2
:1046C00010B516E000F030FF0C48C068C468201D2B
:1046D00000F0CAFE0A480068401E094908600948FF
:1046E0000068401E0749086000F062FF204600F0A5
:1046F0005FF8044800680028E4D110BD4C16002083
:10470000900000208C00002070B504460D46206CFF
:1047100070B1216CE0680144E160D4E90210884284
:1047200001D32168E1602846226CE168FBF769FF4C
:1047300070BD2DE9F04104460F4615464FF00008C4
:10474000A66B206C48B9206800282CD1A06802F024
:10475000ABFB80460020A06025E07DB93946226C85
:104760006068FBF74EFF216C606808446060D4E924
:104770000101884217D32068606014E03946226C3A
:10478000E068FBF73EFF216CE068411AE1602168B8
:10479000E068884203D2216CA068411AE160022DD2
:1047A00001D106B1761E701CA0634046BDE8F081C1
:1047B00010B50446206B00F033FF204600F030FFB8
:1047C00010BD01464A6A22B10A6B1268C2F120008C
:1047D00000E00020704700000146084A1268126895
:1047E0000AB9012200E000220A600A6822B9034ADD
:1047F0001268D268106800E000207047C0000020F6
:1048000030B54FF41053174800F007042CB1C01D09
:1048100020F00700134C041B1B1B0246124C2260A5
:104820000024114D6C60D018083820F007000F4CA0
:10483000206000240D4D2D686C600C4D2D682C609F
:104840001146441A4C60094C24680C60084D4C68B1
:104850002C60084D4C682C604FF00044064D2C60D5
:1048600030BD00009C160020D4000020DC00002099
:10487000E4000020E0000020F000002000BFFFF76F
:104880001FFF064800680128F9D94FF080500449FD
:104890000860BFF34F8FBFF36F8FF0E790130020D6
:1048A00004ED00E02DE9F04106460D461746984616
:1048B000069C0DB9246000E02760E66325640121B1
:1048C000204601F0E5FD84F850800020A064BDE89A
:1048D000F08100002DE9F05F82460F4690469B462E
:1048E0000A9E0C9C4FEA8801A522206BFBF7CEFEA6
:1048F000A8F10100216B01EB800929F0070909F0FB
:10490000070008B9012000E0002028B940F25F321A
:1049100023A128A0FBF70EFD87B1002507E0795DF4
:1049200004F134004155785D00B902E06D1C102D92
:10493000F5D300BF00214320015502E0002084F898
:104940003400202E01D2012000E0002028B940F2DE
:10495000963213A117A0FBF7EDFC202E00D31F26E3
:10496000E662E66400202065201D00F0B4FD04F13D
:10497000180000F0B0FD2461C6F12000A06164625F
:104980000020606584F858005A465146484600F0B9
:10499000FFFB20600B9808B10B980460BDE8F09F06
:1049A0002E2E5C4672656552544F535C7461736B76
:1049B000732E63004572726F723A25732C25640D55
:1049C0000A00000010B5002407E004EB84010F4A40
:1049D00002EB810000F072FD641C202CF5D30C4822
:1049E00000F06CFD0B4800F069FD0B4800F066FD1F
:1049F0000A4800F063FD0A4800F060FD04480949D8
:104A0000086004480849086010BD000090130020A9
:104A10001016002024160020381600204C16002006
:104A200060160020840000208800002010B5014698
:104A3000164800E0006803688B42FBD302464368D7
:104A400013448B4204D143684C68234443600146BD
:104A50000A464B6813440468A34211D10C4C036806
:104A60002468A34208D04B680468646823444B6000
:104A700003681B680B6005E0054B1B680B6001E0D9
:104A800003680B60884200D0016010BDD400002094
:104A9000DC0000202DE9F04104460D4616461F4675
:104AA0004FF0000865602461B5420CD8F01BA16985
:104AB000884202D34FF0010811E0211D0948006827
:104AC00000F00CFD0BE0BE4204D2BD4202D34FF019
:104AD000010804E0211D0448006800F0FFFC404686
:104AE000BDE8F081C4000020C000002070B505467C
:104AF00000F01AFDA86B08B9012400E0002400F0C2
:104B000057FD204670BD70B5054600F00DFDA86B41
:104B1000E96B884201D1012400E0002400F048FD47
:104B2000204670BDF1B50098846C00262CB940F683
:104B3000D73220A124A0FBF7FDFBA06BE16B8842DC
:104B400001D2012000E0002028B940F6D83219A196
:104B50001DA0FBF7EFFBA06BE16B884227D294F915
:104B60004550002269462046FFF7E3FD0646681CD3
:104B700060B9606A08B9012000E00020B0B904F112
:104B8000240002F087FA88B101260FE07F2D01D0C2
:104B9000012000E0002028B940F6F83205A10AA063
:104BA000FBF7C8FB681C40B284F8450000BF3046E4
:104BB000F8BD00002E2E5C4672656552544F535C62
:104BC00071756575652E63004572726F723A257353
:104BD0002C25640D0A00000070B505460E460E48EF
:104BE0000068C068C468201D00F03EFC94F82800EE
:104BF00000F0040028B132462946204600F0F8F8BB
:104C000005E094F8280000F0FE0084F82800204613
:104C1000216A884770BD0000C000002070B586B0D2
:104C20008AE0029800280CDA03AE2EB940F2063270
:104C300047A14DA0FBF77EFBD6E90020B168904765
:104C400000BF0298002877DB049C606908B9012046
:104C500000E0002010B9201D00F006FC01A800F0C3
:104C6000F3F8054602980A2864D2DFE800F06305ED
:104C7000072E365306082F3700BF00BF00BF94F839
:104C8000280040F0010084F828000398A2698118E8
:104C900003462A462046FFF7FDFEA8B194F82800F7
:104CA00000F0040038B10398A26981182A46204612
:104CB00000F09EF805E094F8280000F0FE0084F86B
:104CC00028002046216A884735E000BF94F8280074
:104CD00000F0FE0084F828002DE000BF94F82800C2
:104CE00040F0010084F828000398A061A06908B191
:104CF000012000E0002028B940F2593214A11AA086
:104D0000FBF718FBA06941192B462A462046FFF7FE
:104D1000C1FE10E094F8280000F0020018B9204607
:104D200000F07EFC05E094F8280000F0FE0084F816
:104D3000280000E000BF00BF002202A90E48006862
:104D400001F0A0FD00287FF46CAF06B070BD00003C
:104D50002E2E5C4672656552544F535C74696D65C6
:104D600072732E63000000004572726F723A2573F1
:104D70002C25640D0A000000C8000020F8B5054687
:104D80000C4601F085F8684600F05EF8064600988B
:104D900020BB44B9B54206D802F01AFA314628467B
:104DA000FFF71AFF1CE03CB10E480068006808B924
:104DB000012000E000200446A91B22460A480068A2
:104DC00000F034FD02F004FA50B94FF0805007496A
:104DD0000860BFF34F8FBFF36F8F01E002F0F8F967
:104DE000F8BD0000C4000020C800002004ED00E071
:104DF00070B504460D46164604E0A06905442046F9
:104E0000216A8847A06941192B4632462046FFF7A0
:104E100041FE0028F1D170BD09480068006808B95A
:104E2000012000E0002020B14FF0FF30054908606C
:104E300005E003480068C0680068024908607047E0
:104E400084000020B000002070B5044601F03CFF53
:104E5000054607480068854204D200F00BF801209F
:104E6000206001E00020206001480560284670BDF8
:104E7000D000002070B508E00D480068C0680468E4
:104E80004FF0FF312046FFF7A7FE09480068006891
:104E900008B9012000E000200028EDD00448056892
:104EA00004480068024908600248056070BD0000BF
:104EB000C0000020C40000200B480068401C08B956
:104EC000012000E0002020B9CE2208A112A0FBF7AB
:104ED00031FA00BF502080F31188BFF34F8FBFF32A
:104EE0006F8F00BF00BFFEE7F40000202E2E5C464F
:104EF00072656552544F535C706F727461626C6579
:104F00005C525644535C41524D5F434D335C706F6D
:104F100072742E63000000004572726F723A25733E
:104F20002C25640D0A00000010B50346002022B9AC
:104F300003EA010434B1012004E003EA01048C42D5
:104F400000D1012010BD08B500BF6846FFF744FC42
:104F5000044620460099FFF711FFFFF75FFEF4E7D4
:104F600070B5044600F0E0FA94F9455019E0A06CE1
:104F700030B12046FFF7D6FD88B100F04DFD0EE0C0
:104F8000606A08B9012000E0002038B904F124006B
:104F900002F080F818B100F03FFD00E003E0681E69
:104FA00045B2002DE3DC00BFFF2084F8450000F08F
:104FB000FFFA00F0B9FA94F9445010E0206908B9FA
:104FC000012000E0002048B904F1100002F062F86E
:104FD00008B100F021FD681E45B200E001E0002D9F
:104FE000ECDC00BFFF2084F8440000F0E1FA70BD63
:104FF0002DE9F04104464FF0000800F049FF484811
:10500000006808B9FFF7FCFB46480068204000280C
:1050100073D114B304F10800A0421ED9083404F07F
:105020000700D8B104F00700C0F108002044A042F6
:1050300011D904F00700C0F10800044404F007008F
:1050400008B9012000E0002040B99C2236A140A010
:10505000FBF770F902E0002400E00024002C4CD0A3
:105060003F480068844248D83E4E3046056801E01B
:105070002E462D686868A04202D228680028F7D121
:1050800027480068854238D0306800F10808286851
:1050900030606868001B102813D92F1907F007002B
:1050A00008B9012000E0002020B9CF221EA128A0CD
:1050B000FBF740F96868001B78606C603846FFF7C2
:1050C000B5FC274968680968081A25490860084638
:1050D000006825490968884203D2214800682249AE
:1050E0000860104968680968084368600020286003
:1050F0001E480068401C1D49086002F069F808F06D
:10510000070008B9012000E0002028B94FF4887298
:1051100005A10FA0FBF70EF94046BDE8F0810000A5
:10512000DC000020F00000202E2E5C4672656552E7
:10513000544F535C706F727461626C655C4D656D49
:105140004D616E675C686561705F342E63000000BE
:105150004572726F723A25732C25640D0A000000A7
:10516000E0000020D4000020E4000020E80000203F
:105170000648006830B10549096801F15000096D21
:10518000491C016001480068704700008000002051
:10519000001F4FF080730360001F21F001030360C4
:1051A000001F034B03601438026020387047000072
:1051B000B94E00081CB5044600F0B6F900F02CFF0B
:1051C0002149086003220021012001F021F91F4933
:1051D00008601F48022100235022CDE900101DA1C4
:1051E0001F4801F031FD1F48062100239622CDE91A
:1051F00000101DA1214801F027FD214805210023B1
:105200004FF4AF72CDE900101EA1224801F01CFD41
:1052100000F0CEF94FF4E13000F0CAF8FDF722FFBC
:10522000FDF762FAFCF712FFFCF7CAFEFDF7DEF8A5
:105230004FF47A70FEF76AFFFCF788FF16480068A3
:1052400000F054FB1CBD00001400002010000020E2
:10525000040000206C6564305F7461736B000000B3
:10526000A9430008080000207761697473746172B3
:1052700074636D645F7461736B000000495F0008C4
:105280000C00002067617473656E736F725F7461E8
:10529000736B000041410008000000200FB438B5D6
:1052A00005A800900F48009A0499FBF731F80020F8
:1052B00000900C48FBF786F985B200240DE000BF92
:1052C00040210948FEF7B4FD0028F9D00548015DEA
:1052D0000548FEF77AFE601C84B2AC42EFDB38BCB6
:1052E0005DF814FBB00200200048004010B50446F1
:1052F00021460548FEF769FE00BF80210248FEF7FF
:1053000097FD0028F9D010BD0048004010B586B0C8
:105310000446012144F20400FEF756F94FF40070F0
:10532000ADF8140003208DF8160018208DF8170032
:1053300005A91D48FDF77DFA4FF48060ADF8140013
:1053400004208DF8170005A91748FDF772FA2520EB
:105350008DF8000009208DF8010000208DF8020072
:1053600001208DF803006846FEF77CF801940020C8
:10537000ADF80800ADF80A00ADF80C00ADF810006B
:105380000C20ADF80E0001A90848FEF7ADFD012282
:1053900040F225510548FEF782FD01210348FEF742
:1053A000EDFC06B010BD00000008014000380140CF
:1053B00010B586B0044601210920FEF705F9012148
:1053C0008804FEF7E1F82548FEF7E4FC4FF480601E
:1053D000ADF8100003208DF8120018208DF813008E
:1053E00004A91F48FDF725FA4FF40060ADF810003E
:1053F00004208DF8130004A91948FDF71AFA009447
:105400000020ADF80400ADF80600ADF80800ADF8D6
:105410000C000C20ADF80A0069461048FEF764FD48
:1054200001210E48FEF7AAFC012240F225510B484B
:10543000FEF735FD27208DF8140008208DF81500A3
:1054400000208DF8160001208DF8170005A8FEF742
:1054500009F800200349088006B010BD004800404C
:10546000000C01404200002001460A69D1E90130E8
:105470009860D1E9010358605068884201D188687A
:105480005060002008611068401E1060106870476E
:1054900005490968886904490968C96AC1F1200198
:1054A000014A1268916170478000002070B504467F
:1054B0000D462946204600F0BDFD70BD00F10801F3
:1054C00041604FF0FF31816000F10801C16001616E
:1054D00000210160704700210161704710B502464C
:1054E0000B685C1C0CB9106907E002F1080000E0D1
:1054F0004068446824689C42FAD944684C604C680F
:10550000A160886041600A611468641C146010BD69
:1055100042684A6093688B60936859609160086143
:1055200003685B1C0360704710B500BF502080F318
:105530001188BFF34F8FBFF36F8F00BF0B48006818
:10554000401C0A4908600846006801280DD1084837
:105550000068C0B208B9012000E0002028B940F27C
:10556000731204A10EA0FAF7E5FE10BDF4000020AE
:1055700004ED00E02E2E5C4672656552544F535C7C
:10558000706F727461626C655C525644535C415238
:105590004D5F434D335C706F72742E6300000000EA
:1055A0004572726F723A25732C25640D0A00000053
:1055B00010B50B48006828B94FF4BD7209A114A0BA
:1055C000FAF7B8FE06480068401E0549086008461C
:1055D000006820B9002080F3118800BF00BF10BD13
:1055E000F40000202E2E5C4672656552544F535CC9
:1055F000706F727461626C655C525644535C4152C8
:105600004D5F434D335C706F72742E630000000079
:105610004572726F723A25732C25640D0A000000E2
:1056200070B506463546002E3AD0083D2C461D4939
:1056300060680968084008B1012000E0002028B92E
:105640004FF4927218A122A0FAF774FE206808B9EC
:10565000012000E0002028B940F2251212A11CA070
:10566000FAF768FE0F49606809680840C0B1206811
:10567000B0B90C49606809688843606000F008FCB4
:105680001749606809680844154908602046FFF713
:10569000CDF914480068401C1249086001F098FDDB
:1056A00070BD0000F00000202E2E5C467265655231
:1056B000544F535C706F727461626C655C4D656DC4
:1056C0004D616E675C686561705F342E6300000039
:1056D0004572726F723A25732C25640D0A00000022
:1056E000E0000020EC00002000204FF0E0210861E5
:1056F0008861064800684FF47A71B0FBF1F0401EF3
:105700004FF0E02148610720086170471800002031
:1057100070B5FAF7D7FD0546102D11D305F1E0203D
:1057200090F8F04310480078844201DB012000E04B
:10573000002028B940F2BB220CA117A0FAF7FAFD0D
:105740001948006800F4E06018490968884201D8E7
:10575000012000E0002028B940F2CB2203A10EA0D6
:10576000FAF7E8FD70BD0000F80000202E2E5C4620
:1057700072656552544F535C706F727461626C65F0
:105780005C525644535C41524D5F434D335C706FE5
:1057900072742E63000000004572726F723A2573B6
:1057A0002C25640D0A0000000CED00E0FC00002038
:1057B0002DE9F04105460F4600262DB940F6CA22D4
:1057C00010A115A0FAF7B6FDBFB1002412E01648EB
:1057D00000EBC4004068A84203D1134800EBC406A4
:1057E0000AE036B9104850F8340010B90E4800EB02
:1057F000C406641C082CEAD300BF0EB13760756084
:10580000BDE8F0812E2E5C4672656552544F535CA4
:1058100071756575652E63004572726F723A2573F6
:105820002C25640D0A000000501300202DE9F041E2
:1058300005460E4617462C46FFF776FE94F94400BF
:10584000401C10B9002084F8440094F94500401C25
:1058500010B9002084F84500FFF7AAFEA06B28B914
:105860003A46314604F1240000F006F92046FFF7DD
:1058700077FBBDE8F081000070B504460025ACB1AF
:105880000F48006808B9012000E0002028B94FF453
:10589000A9620CA110A0FAF74DFD00F0F9FA002161
:1058A0002046FEF705FE01F093FC05463DB94FF09A
:1058B00080500D490860BFF34F8FBFF36F8F70BDED
:1058C000BC0000202E2E5C4672656552544F535C1E
:1058D0007461736B732E63004572726F723A257335
:1058E0002C25640D0A00000004ED00E070B50546AB
:1058F000FFF71AFE15B92F48006800E02846044655
:10590000201DFFF7B1FD78B9E06A00EB80002A495D
:1059100051F8200040B994F82C1001208840274904
:105920000968814325480160A06A18B104F1180094
:10593000FFF79AFD22480068401C214908601D4875
:105940000068844209D1211D1E48FFF7E1FD1E4871
:105950000068401C1C49086006E01C480068401EA6
:105960001A490860FFF758FAFFF722FE114800684D
:10597000844202D02046FEF71BFF15480068C0B1E4
:105980000C480068844214D11248006808B901200C
:1059900000E0002028B940F2DB420FA113A0FAF783
:1059A000C9FC4FF0805015490860BFF34F8FBFF31B
:1059B0006F8F70BD800000209013002098000020A1
:1059C000AC0000204C1600208C000020900000202D
:1059D0009C000020BC0000202E2E5C4672656552A3
:1059E000544F535C7461736B732E63004572726F16
:1059F000723A25732C25640D0A00000004ED00E0C6
:105A00000349096801600349096841607047000063
:105A1000A800002094000020012001490860704780
:105A2000A400002070B504460D462CB940F61B4278
:105A300007A10CA0FAF77EFC0E4801681831204639
:105A4000FFF74CFD01212846FEF732FD70BD000036
:105A50002E2E5C4672656552544F535C7461736BB5
:105A6000732E63004572726F723A25732C25640D94
:105A70000A0000008000002070B504460E4615465E
:105A80002CB940F6514211A115A0FAF753FC6068F9
:105A900017490968C8611649826809680A62144989
:105AA00009681831826851601149096818318160AC
:105AB0000F4909688C622168491C21600DB14FF0C3
:105AC000FF3629463046FEF7F3FC70BD2E2E5C46AD
:105AD00072656552544F535C7461736B732E63002F
